:1000000000308A00BD280000FF00030E8301A50018
:100010007F08A4000A08AB008A01A40E0408A60009
:100020002008A7002108A8002208A9002308AA0088
:10003000831383128C308400801E20288C1A312870
:10004000260884002708A0002808A1002908A2008B
:100050002A08A3002B088A00250E8300FF0E7F0EBE
:1000600009008A113F2836305E07840083136B082D
:100070008000DE0A5E08273C031CDE0108008C1E9F
:100080003F281808B20001301805A2001A08A10084
:10009000B21C4C28181218162208EA002108E900A0
:1000A0006908DF06600803195F28013A03196B2805
:1000B000033A03197128FD3A031977288728340871
:1000C000DE006A08E5006908E4006908DF006408EA
:1000D000EB0033208B286A08E3006908E2009811DE
:1000E0008B286908E1006108EB0033208B28DF08CA
:1000F000031D8428631C8428651C842862080A3C2C
:10010000031D84285E08B4009815E001962869084C
:10011000EB003320E1036008023C03189528E10856
:10012000031D9528FF30E0009628E00A8C128A1102
:100130002028D830831687008312871683168700FD
:10014000831287148316870083120715080068300E
:100150008400831300080319BB280330A100A00109
:10016000A00BB028A10BAF28E330A000A00BB6284D
:100170000000800BAD288A112B2903081F3983004A
:100180008316061383120613B20183169B114D309A
:100190009900E6309800D030831298008316061339
:1001A000831206138316861383128617E001E70174
:1001B000E60103171F109F101F119F1103131F1338
:1001C000003003179E0099019A0183169E01831245
:1001D0009B0103138D128313AC01AD01DF01E1011B
:1001E000E201E301E401E5018316171401309700F1
:1001F0000D308312A0008101813084008313000838
:10020000F0390738800064000008F739A019F03988
:10021000200480009920071B1329FC3083168500D9
:10022000831285101829FC308316850083128514EB
:10023000871F1C2964001829E701E601051D2F29E5
:10024000E708031D2F296608233C031C2F2964009F
:100250000130E800A728E60A0319E70A1E29660804
:10026000243C031D4029E708031D4029D83083168C
:10027000870083128712831687008312871049290B
:10028000D83083168700831287168316870083125F
:100290000711871B4D296400492999200B29630008
:02400E00EA3F87
:00000001FF
;PIC16F690
;CRC=9BE4  CREATED="27-Nov-18 22:25"
